{
  "_format": "hh-sol-artifact-1",
  "contractName": "NFT",
  "sourceName": "contracts/NFT.sol",
  "abi": [
    {
      "inputs": [],
      "stateMutability": "nonpayable",
      "type": "constructor"
    },
    {
      "anonymous": false,
      "inputs": [
        {
          "indexed": true,
          "internalType": "address",
          "name": "owner",
          "type": "address"
        },
        {
          "indexed": true,
          "internalType": "address",
          "name": "approved",
          "type": "address"
        },
        {
          "indexed": true,
          "internalType": "uint256",
          "name": "tokenId",
          "type": "uint256"
        }
      ],
      "name": "Approval",
      "type": "event"
    },
    {
      "anonymous": false,
      "inputs": [
        {
          "indexed": true,
          "internalType": "address",
          "name": "owner",
          "type": "address"
        },
        {
          "indexed": true,
          "internalType": "address",
          "name": "operator",
          "type": "address"
        },
        {
          "indexed": false,
          "internalType": "bool",
          "name": "approved",
          "type": "bool"
        }
      ],
      "name": "ApprovalForAll",
      "type": "event"
    },
    {
      "anonymous": false,
      "inputs": [
        {
          "indexed": false,
          "internalType": "address",
          "name": "sender",
          "type": "address"
        },
        {
          "indexed": false,
          "internalType": "uint256",
          "name": "tokenId",
          "type": "uint256"
        }
      ],
      "name": "NewNFTMinted",
      "type": "event"
    },
    {
      "anonymous": false,
      "inputs": [
        {
          "indexed": true,
          "internalType": "address",
          "name": "from",
          "type": "address"
        },
        {
          "indexed": true,
          "internalType": "address",
          "name": "to",
          "type": "address"
        },
        {
          "indexed": true,
          "internalType": "uint256",
          "name": "tokenId",
          "type": "uint256"
        }
      ],
      "name": "Transfer",
      "type": "event"
    },
    {
      "inputs": [
        {
          "internalType": "address",
          "name": "to",
          "type": "address"
        },
        {
          "internalType": "uint256",
          "name": "tokenId",
          "type": "uint256"
        }
      ],
      "name": "approve",
      "outputs": [],
      "stateMutability": "nonpayable",
      "type": "function"
    },
    {
      "inputs": [
        {
          "internalType": "address",
          "name": "owner",
          "type": "address"
        }
      ],
      "name": "balanceOf",
      "outputs": [
        {
          "internalType": "uint256",
          "name": "",
          "type": "uint256"
        }
      ],
      "stateMutability": "view",
      "type": "function"
    },
    {
      "inputs": [],
      "name": "createNFT",
      "outputs": [],
      "stateMutability": "nonpayable",
      "type": "function"
    },
    {
      "inputs": [
        {
          "internalType": "uint256",
          "name": "tokenId",
          "type": "uint256"
        }
      ],
      "name": "getApproved",
      "outputs": [
        {
          "internalType": "address",
          "name": "",
          "type": "address"
        }
      ],
      "stateMutability": "view",
      "type": "function"
    },
    {
      "inputs": [
        {
          "internalType": "address",
          "name": "owner",
          "type": "address"
        },
        {
          "internalType": "address",
          "name": "operator",
          "type": "address"
        }
      ],
      "name": "isApprovedForAll",
      "outputs": [
        {
          "internalType": "bool",
          "name": "",
          "type": "bool"
        }
      ],
      "stateMutability": "view",
      "type": "function"
    },
    {
      "inputs": [],
      "name": "name",
      "outputs": [
        {
          "internalType": "string",
          "name": "",
          "type": "string"
        }
      ],
      "stateMutability": "view",
      "type": "function"
    },
    {
      "inputs": [
        {
          "internalType": "uint256",
          "name": "tokenId",
          "type": "uint256"
        }
      ],
      "name": "ownerOf",
      "outputs": [
        {
          "internalType": "address",
          "name": "",
          "type": "address"
        }
      ],
      "stateMutability": "view",
      "type": "function"
    },
    {
      "inputs": [
        {
          "internalType": "string[]",
          "name": "_wordArray",
          "type": "string[]"
        },
        {
          "internalType": "uint256",
          "name": "_tokenId",
          "type": "uint256"
        },
        {
          "internalType": "string",
          "name": "_randomWord",
          "type": "string"
        }
      ],
      "name": "pickRandomWord",
      "outputs": [
        {
          "internalType": "string",
          "name": "",
          "type": "string"
        }
      ],
      "stateMutability": "pure",
      "type": "function"
    },
    {
      "inputs": [
        {
          "internalType": "address",
          "name": "from",
          "type": "address"
        },
        {
          "internalType": "address",
          "name": "to",
          "type": "address"
        },
        {
          "internalType": "uint256",
          "name": "tokenId",
          "type": "uint256"
        }
      ],
      "name": "safeTransferFrom",
      "outputs": [],
      "stateMutability": "nonpayable",
      "type": "function"
    },
    {
      "inputs": [
        {
          "internalType": "address",
          "name": "from",
          "type": "address"
        },
        {
          "internalType": "address",
          "name": "to",
          "type": "address"
        },
        {
          "internalType": "uint256",
          "name": "tokenId",
          "type": "uint256"
        },
        {
          "internalType": "bytes",
          "name": "_data",
          "type": "bytes"
        }
      ],
      "name": "safeTransferFrom",
      "outputs": [],
      "stateMutability": "nonpayable",
      "type": "function"
    },
    {
      "inputs": [
        {
          "internalType": "address",
          "name": "operator",
          "type": "address"
        },
        {
          "internalType": "bool",
          "name": "approved",
          "type": "bool"
        }
      ],
      "name": "setApprovalForAll",
      "outputs": [],
      "stateMutability": "nonpayable",
      "type": "function"
    },
    {
      "inputs": [
        {
          "internalType": "bytes4",
          "name": "interfaceId",
          "type": "bytes4"
        }
      ],
      "name": "supportsInterface",
      "outputs": [
        {
          "internalType": "bool",
          "name": "",
          "type": "bool"
        }
      ],
      "stateMutability": "view",
      "type": "function"
    },
    {
      "inputs": [],
      "name": "symbol",
      "outputs": [
        {
          "internalType": "string",
          "name": "",
          "type": "string"
        }
      ],
      "stateMutability": "view",
      "type": "function"
    },
    {
      "inputs": [
        {
          "internalType": "uint256",
          "name": "tokenId",
          "type": "uint256"
        }
      ],
      "name": "tokenURI",
      "outputs": [
        {
          "internalType": "string",
          "name": "",
          "type": "string"
        }
      ],
      "stateMutability": "view",
      "type": "function"
    },
    {
      "inputs": [
        {
          "internalType": "address",
          "name": "from",
          "type": "address"
        },
        {
          "internalType": "address",
          "name": "to",
          "type": "address"
        },
        {
          "internalType": "uint256",
          "name": "tokenId",
          "type": "uint256"
        }
      ],
      "name": "transferFrom",
      "outputs": [],
      "stateMutability": "nonpayable",
      "type": "function"
    }
  ],
  "bytecode": "0x608060405260405180608001604052806040518060400160405280600781526020017f50616e63616b650000000000000000000000000000000000000000000000000081525081526020016040518060400160405280600581526020017f50697a7a6100000000000000000000000000000000000000000000000000000081525081526020016040518060400160405280600681526020017f4d756666696e000000000000000000000000000000000000000000000000000081525081526020016040518060400160405280600781526020017f506f70636f726e0000000000000000000000000000000000000000000000000081525081525060089060046200010b9291906200051c565b5060405180608001604052806040518060400160405280600981526020017f43726f636f64696c65000000000000000000000000000000000000000000000081525081526020016040518060400160405280600681526020017f496775616e61000000000000000000000000000000000000000000000000000081525081526020016040518060400160405280600481526020017f4c696f6e0000000000000000000000000000000000000000000000000000000081525081526020016040518060400160405280600381526020017f52617400000000000000000000000000000000000000000000000000000000008152508152506009906004620002139291906200051c565b5060405180608001604052806040518060400160405280600781526020017f42696379636c650000000000000000000000000000000000000000000000000081525081526020016040518060400160405280600681526020017f43616272696f000000000000000000000000000000000000000000000000000081525081526020016040518060400160405280600481526020017f54616e6b0000000000000000000000000000000000000000000000000000000081525081526020016040518060400160405280600481526020017f5461786900000000000000000000000000000000000000000000000000000000815250815250600a9060046200031b9291906200051c565b5060405180610160016040528061012f8152602001620041ab61012f9139600b90805190602001906200035092919062000583565b503480156200035e57600080fd5b506040518060400160405280600781526020017f536c61764e4654000000000000000000000000000000000000000000000000008152506040518060400160405280600481526020017f534e4654000000000000000000000000000000000000000000000000000000008152508160009080519060200190620003e392919062000583565b508060019080519060200190620003fc92919062000583565b5050506200044a6040518060400160405280601181526020017f466972737420636f6e74726163742e2e2e0000000000000000000000000000008152506200045060201b620012231760201c565b620007ce565b620004f081604051602401620004679190620006e2565b6040516020818303038152906040527f41304fac000000000000000000000000000000000000000000000000000000007bffffffffffffffffffffffffffffffffffffffffffffffffffffffff19166020820180517bffffffffffffffffffffffffffffffffffffffffffffffffffffffff8381831617835250505050620004f360201b60201c565b50565b60008151905060006a636f6e736f6c652e6c6f679050602083016000808483855afa5050505050565b82805482825590600052602060002090810192821562000570579160200282015b828111156200056f5782518290805190602001906200055e92919062000583565b50916020019190600101906200053d565b5b5090506200057f919062000614565b5090565b828054620005919062000758565b90600052602060002090601f016020900481019282620005b5576000855562000601565b82601f10620005d057805160ff191683800117855562000601565b8280016001018555821562000601579182015b8281111562000600578251825591602001919060010190620005e3565b5b5090506200061091906200063c565b5090565b5b808211156200063857600081816200062e91906200065b565b5060010162000615565b5090565b5b80821115620006575760008160009055506001016200063d565b5090565b508054620006699062000758565b6000825580601f106200067d57506200069e565b601f0160209004906000526020600020908101906200069d91906200063c565b5b50565b6000620006ae8262000706565b620006ba818562000711565b9350620006cc81856020860162000722565b620006d781620007bd565b840191505092915050565b60006020820190508181036000830152620006fe8184620006a1565b905092915050565b600081519050919050565b600082825260208201905092915050565b60005b838110156200074257808201518184015260208101905062000725565b8381111562000752576000848401525b50505050565b600060028204905060018216806200077157607f821691505b602082108114156200078857620007876200078e565b5b50919050565b7f4e487b7100000000000000000000000000000000000000000000000000000000600052602260045260246000fd5b6000601f19601f8301169050919050565b6139cd80620007de6000396000f3fe608060405234801561001057600080fd5b50600436106100f55760003560e01c806370a0823111610097578063b88d4fde11610066578063b88d4fde14610270578063c0dcbbed1461028c578063c87b56dd146102bc578063e985e9c5146102ec576100f5565b806370a08231146101fc5780638a97ec2a1461022c57806395d89b4114610236578063a22cb46514610254576100f5565b8063095ea7b3116100d3578063095ea7b31461017857806323b872dd1461019457806342842e0e146101b05780636352211e146101cc576100f5565b806301ffc9a7146100fa57806306fdde031461012a578063081812fc14610148575b600080fd5b610114600480360381019061010f91906126c0565b61031c565b60405161012191906131b0565b60405180910390f35b6101326103fe565b60405161013f91906131cb565b60405180910390f35b610162600480360381019061015d9190612712565b610490565b60405161016f9190613120565b60405180910390f35b610192600480360381019061018d9190612605565b610515565b005b6101ae60048036038101906101a991906124ff565b61062d565b005b6101ca60048036038101906101c591906124ff565b61068d565b005b6101e660048036038101906101e19190612712565b6106ad565b6040516101f39190613120565b60405180910390f35b6102166004803603810190610211919061249a565b61075f565b6040516102239190613462565b60405180910390f35b610234610817565b005b61023e610d36565b60405161024b91906131cb565b60405180910390f35b61026e600480360381019061026991906125c9565b610dc8565b005b61028a6004803603810190610285919061254e565b610f49565b005b6102a660048036038101906102a19190612641565b610fab565b6040516102b391906131cb565b60405180910390f35b6102d660048036038101906102d19190612712565b61103d565b6040516102e391906131cb565b60405180910390f35b610306600480360381019061030191906124c3565b61118f565b60405161031391906131b0565b60405180910390f35b60007f80ac58cd000000000000000000000000000000000000000000000000000000007bffffffffffffffffffffffffffffffffffffffffffffffffffffffff1916827bffffffffffffffffffffffffffffffffffffffffffffffffffffffff191614806103e757507f5b5e139f000000000000000000000000000000000000000000000000000000007bffffffffffffffffffffffffffffffffffffffffffffffffffffffff1916827bffffffffffffffffffffffffffffffffffffffffffffffffffffffff1916145b806103f757506103f6826112bc565b5b9050919050565b60606000805461040d9061375d565b80601f01602080910402602001604051908101604052809291908181526020018280546104399061375d565b80156104865780601f1061045b57610100808354040283529160200191610486565b820191906000526020600020905b81548152906001019060200180831161046957829003601f168201915b5050505050905090565b600061049b82611326565b6104da576040517f08c379a00000000000000000000000000000000000000000000000000000000081526004016104d1906133c2565b60405180910390fd5b6004600083815260200190815260200160002060009054906101000a900473ffffffffffffffffffffffffffffffffffffffff169050919050565b6000610520826106ad565b90508073ffffffffffffffffffffffffffffffffffffffff168373ffffffffffffffffffffffffffffffffffffffff161415610591576040517f08c379a000000000000000000000000000000000000000000000000000000000815260040161058890613422565b60405180910390fd5b8073ffffffffffffffffffffffffffffffffffffffff166105b0611392565b73ffffffffffffffffffffffffffffffffffffffff1614806105df57506105de816105d9611392565b61118f565b5b61061e576040517f08c379a000000000000000000000000000000000000000000000000000000000815260040161061590613302565b60405180910390fd5b610628838361139a565b505050565b61063e610638611392565b82611453565b61067d576040517f08c379a000000000000000000000000000000000000000000000000000000000815260040161067490613442565b60405180910390fd5b610688838383611531565b505050565b6106a883838360405180602001604052806000815250610f49565b505050565b6000806002600084815260200190815260200160002060009054906101000a900473ffffffffffffffffffffffffffffffffffffffff169050600073ffffffffffffffffffffffffffffffffffffffff168173ffffffffffffffffffffffffffffffffffffffff161415610756576040517f08c379a000000000000000000000000000000000000000000000000000000000815260040161074d90613342565b60405180910390fd5b80915050919050565b60008073ffffffffffffffffffffffffffffffffffffffff168273ffffffffffffffffffffffffffffffffffffffff1614156107d0576040517f08c379a00000000000000000000000000000000000000000000000000000000081526004016107c790613322565b60405180910390fd5b600360008373ffffffffffffffffffffffffffffffffffffffff1673ffffffffffffffffffffffffffffffffffffffff168152602001908152602001600020549050919050565b60056001610825600761178d565b61082f9190613592565b111561083a57600080fd5b6000610846600761178d565b9050600061095b6008805480602002602001604051908101604052809291908181526020016000905b8282101561091b57838290600052602060002001805461088e9061375d565b80601f01602080910402602001604051908101604052809291908181526020018280546108ba9061375d565b80156109075780601f106108dc57610100808354040283529160200191610907565b820191906000526020600020905b8154815290600101906020018083116108ea57829003601f168201915b50505050508152602001906001019061086f565b50505050836040518060400160405280600881526020017f6669696969727374000000000000000000000000000000000000000000000000815250610fab565b90506000610a706009805480602002602001604051908101604052809291908181526020016000905b82821015610a305783829060005260206000200180546109a39061375d565b80601f01602080910402602001604051908101604052809291908181526020018280546109cf9061375d565b8015610a1c5780601f106109f157610100808354040283529160200191610a1c565b820191906000526020600020905b8154815290600101906020018083116109ff57829003601f168201915b505050505081526020019060010190610984565b50505050846040518060400160405280600881526020017f7365636f6f6f6e64000000000000000000000000000000000000000000000000815250610fab565b90506000610b85600a805480602002602001604051908101604052809291908181526020016000905b82821015610b45578382906000526020600020018054610ab89061375d565b80601f0160208091040260200160405190810160405280929190818152602001828054610ae49061375d565b8015610b315780601f10610b0657610100808354040283529160200191610b31565b820191906000526020600020905b815481529060010190602001808311610b1457829003601f168201915b505050505081526020019060010190610a99565b50505050856040518060400160405280600981526020017f7468686869696972640000000000000000000000000000000000000000000000815250610fab565b90506000838383604051602001610b9e9392919061303f565b60405160208183030381529060405290506000600b858585604051602001610bc99493929190613070565b6040516020818303038152906040529050610c196040518060400160405280600a81526020017f46696e616c5376673a20000000000000000000000000000000000000000000008152508261179b565b6000610c4d83610c2884611837565b604051602001610c399291906130b9565b604051602081830303815290604052611837565b9050600081604051602001610c6291906130fe565b6040516020818303038152906040529050610cb26040518060400160405280600981526020017f546f6b656e2055726900000000000000000000000000000000000000000000008152508261179b565b610cbc33896119f5565b610cc68882611a13565b610ce9604051806060016040528060258152602001613973602591398933611a87565b610cf36007611b26565b7f1c05098ed1ff38e6238d2b1b04b2c7977d4c94ce651bda6473f9dba8dbf01da03389604051610d24929190613187565b60405180910390a15050505050505050565b606060018054610d459061375d565b80601f0160208091040260200160405190810160405280929190818152602001828054610d719061375d565b8015610dbe5780601f10610d9357610100808354040283529160200191610dbe565b820191906000526020600020905b815481529060010190602001808311610da157829003601f168201915b5050505050905090565b610dd0611392565b73ffffffffffffffffffffffffffffffffffffffff168273ffffffffffffffffffffffffffffffffffffffff161415610e3e576040517f08c379a0000000000000000000000000000000000000000000000000000000008152600401610e35906132c2565b60405180910390fd5b8060056000610e4b611392565b73ffffffffffffffffffffffffffffffffffffffff1673ffffffffffffffffffffffffffffffffffffffff16815260200190815260200160002060008473ffffffffffffffffffffffffffffffffffffffff1673ffffffffffffffffffffffffffffffffffffffff16815260200190815260200160002060006101000a81548160ff0219169083151502179055508173ffffffffffffffffffffffffffffffffffffffff16610ef8611392565b73ffffffffffffffffffffffffffffffffffffffff167f17307eab39ab6107e8899845ad3d59bd9653f200f220920489ca2b5937696c3183604051610f3d91906131b0565b60405180910390a35050565b610f5a610f54611392565b83611453565b610f99576040517f08c379a0000000000000000000000000000000000000000000000000000000008152600401610f9090613442565b60405180910390fd5b610fa584848484611b3c565b50505050565b60606000610fe183610fbc86611b98565b604051602001610fcd92919061301b565b604051602081830303815290604052611d45565b9050845181610ff091906137d8565b905084818151811061102b577f4e487b7100000000000000000000000000000000000000000000000000000000600052603260045260246000fd5b60200260200101519150509392505050565b606061104882611326565b611087576040517f08c379a000000000000000000000000000000000000000000000000000000000815260040161107e906133a2565b60405180910390fd5b60006006600084815260200190815260200160002080546110a79061375d565b80601f01602080910402602001604051908101604052809291908181526020018280546110d39061375d565b80156111205780601f106110f557610100808354040283529160200191611120565b820191906000526020600020905b81548152906001019060200180831161110357829003601f168201915b505050505090506000611131611d78565b905060008151141561114757819250505061118a565b60008251111561117c57808260405160200161116492919061301b565b6040516020818303038152906040529250505061118a565b61118584611d8f565b925050505b919050565b6000600560008473ffffffffffffffffffffffffffffffffffffffff1673ffffffffffffffffffffffffffffffffffffffff16815260200190815260200160002060008373ffffffffffffffffffffffffffffffffffffffff1673ffffffffffffffffffffffffffffffffffffffff16815260200190815260200160002060009054906101000a900460ff16905092915050565b6112b98160405160240161123791906131cb565b6040516020818303038152906040527f41304fac000000000000000000000000000000000000000000000000000000007bffffffffffffffffffffffffffffffffffffffffffffffffffffffff19166020820180517bffffffffffffffffffffffffffffffffffffffffffffffffffffffff8381831617835250505050611e36565b50565b60007f01ffc9a7000000000000000000000000000000000000000000000000000000007bffffffffffffffffffffffffffffffffffffffffffffffffffffffff1916827bffffffffffffffffffffffffffffffffffffffffffffffffffffffff1916149050919050565b60008073ffffffffffffffffffffffffffffffffffffffff166002600084815260200190815260200160002060009054906101000a900473ffffffffffffffffffffffffffffffffffffffff1673ffffffffffffffffffffffffffffffffffffffff1614159050919050565b600033905090565b816004600083815260200190815260200160002060006101000a81548173ffffffffffffffffffffffffffffffffffffffff021916908373ffffffffffffffffffffffffffffffffffffffff160217905550808273ffffffffffffffffffffffffffffffffffffffff1661140d836106ad565b73ffffffffffffffffffffffffffffffffffffffff167f8c5be1e5ebec7d5bd14f71427d1e84f3dd0314c0f7b2291e5b200ac8c7c3b92560405160405180910390a45050565b600061145e82611326565b61149d576040517f08c379a0000000000000000000000000000000000000000000000000000000008152600401611494906132e2565b60405180910390fd5b60006114a8836106ad565b90508073ffffffffffffffffffffffffffffffffffffffff168473ffffffffffffffffffffffffffffffffffffffff16148061151757508373ffffffffffffffffffffffffffffffffffffffff166114ff84610490565b73ffffffffffffffffffffffffffffffffffffffff16145b806115285750611527818561118f565b5b91505092915050565b8273ffffffffffffffffffffffffffffffffffffffff16611551826106ad565b73ffffffffffffffffffffffffffffffffffffffff16146115a7576040517f08c379a000000000000000000000000000000000000000000000000000000000815260040161159e906133e2565b60405180910390fd5b600073ffffffffffffffffffffffffffffffffffffffff168273ffffffffffffffffffffffffffffffffffffffff161415611617576040517f08c379a000000000000000000000000000000000000000000000000000000000815260040161160e906132a2565b60405180910390fd5b611622838383611e5f565b61162d60008261139a565b6001600360008573ffffffffffffffffffffffffffffffffffffffff1673ffffffffffffffffffffffffffffffffffffffff168152602001908152602001600020600082825461167d9190613673565b925050819055506001600360008473ffffffffffffffffffffffffffffffffffffffff1673ffffffffffffffffffffffffffffffffffffffff16815260200190815260200160002060008282546116d49190613592565b92505081905550816002600083815260200190815260200160002060006101000a81548173ffffffffffffffffffffffffffffffffffffffff021916908373ffffffffffffffffffffffffffffffffffffffff160217905550808273ffffffffffffffffffffffffffffffffffffffff168473ffffffffffffffffffffffffffffffffffffffff167fddf252ad1be2c89b69c2b068fc378daa952ba7f163c4a11628f55a4df523b3ef60405160405180910390a4505050565b600081600001549050919050565b61183382826040516024016117b19291906131ed565b6040516020818303038152906040527f4b5c4277000000000000000000000000000000000000000000000000000000007bffffffffffffffffffffffffffffffffffffffffffffffffffffffff19166020820180517bffffffffffffffffffffffffffffffffffffffffffffffffffffffff8381831617835250505050611e36565b5050565b6060600082519050600081141561186057604051806020016040528060008152509150506119f0565b600060036002836118719190613592565b61187b91906135e8565b60046118879190613619565b905060006020826118989190613592565b67ffffffffffffffff8111156118d7577f4e487b7100000000000000000000000000000000000000000000000000000000600052604160045260246000fd5b6040519080825280601f01601f1916602001820160405280156119095781602001600182028036833780820191505090505b5090506000604051806060016040528060408152602001613933604091399050600181016020830160005b868110156119ad5760038101905062ffffff818a015116603f8160121c168401518060081b905060ff603f83600c1c1686015116810190508060081b905060ff603f8360061c1686015116810190508060081b905060ff603f831686015116810190508060e01b90508084526004840193505050611934565b5060038606600181146119c757600281146119d7576119e2565b613d3d60f01b60028303526119e2565b603d60f81b60018303525b508484525050819450505050505b919050565b611a0f828260405180602001604052806000815250611e64565b5050565b611a1c82611326565b611a5b576040517f08c379a0000000000000000000000000000000000000000000000000000000008152600401611a5290613362565b60405180910390fd5b80600660008481526020019081526020016000209080519060200190611a82929190612237565b505050565b611b21838383604051602401611a9f93929190613224565b6040516020818303038152906040527fe3849f79000000000000000000000000000000000000000000000000000000007bffffffffffffffffffffffffffffffffffffffffffffffffffffffff19166020820180517bffffffffffffffffffffffffffffffffffffffffffffffffffffffff8381831617835250505050611e36565b505050565b6001816000016000828254019250508190555050565b611b47848484611531565b611b5384848484611ebf565b611b92576040517f08c379a0000000000000000000000000000000000000000000000000000000008152600401611b8990613262565b60405180910390fd5b50505050565b60606000821415611be0576040518060400160405280600181526020017f30000000000000000000000000000000000000000000000000000000000000008152509050611d40565b600082905060005b60008214611c12578080611bfb9061378f565b915050600a82611c0b91906135e8565b9150611be8565b60008167ffffffffffffffff811115611c54577f4e487b7100000000000000000000000000000000000000000000000000000000600052604160045260246000fd5b6040519080825280601f01601f191660200182016040528015611c865781602001600182028036833780820191505090505b5090505b60008514611d3957600182611c9f9190613673565b9150600a85611cae91906137d8565b6030611cba9190613592565b60f81b818381518110611cf6577f4e487b7100000000000000000000000000000000000000000000000000000000600052603260045260246000fd5b60200101907effffffffffffffffffffffffffffffffffffffffffffffffffffffffffffff1916908160001a905350600a85611d3291906135e8565b9450611c8a565b8093505050505b919050565b600081604051602001611d589190613004565b6040516020818303038152906040528051906020012060001c9050919050565b606060405180602001604052806000815250905090565b6060611d9a82611326565b611dd9576040517f08c379a0000000000000000000000000000000000000000000000000000000008152600401611dd090613402565b60405180910390fd5b6000611de3611d78565b90506000815111611e035760405180602001604052806000815250611e2e565b80611e0d84611b98565b604051602001611e1e92919061301b565b6040516020818303038152906040525b915050919050565b60008151905060006a636f6e736f6c652e6c6f679050602083016000808483855afa5050505050565b505050565b611e6e8383612056565b611e7b6000848484611ebf565b611eba576040517f08c379a0000000000000000000000000000000000000000000000000000000008152600401611eb190613262565b60405180910390fd5b505050565b6000611ee08473ffffffffffffffffffffffffffffffffffffffff16612224565b15612049578373ffffffffffffffffffffffffffffffffffffffff1663150b7a02611f09611392565b8786866040518563ffffffff1660e01b8152600401611f2b949392919061313b565b602060405180830381600087803b158015611f4557600080fd5b505af1925050508015611f7657506040513d601f19601f82011682018060405250810190611f7391906126e9565b60015b611ff9573d8060008114611fa6576040519150601f19603f3d011682016040523d82523d6000602084013e611fab565b606091505b50600081511415611ff1576040517f08c379a0000000000000000000000000000000000000000000000000000000008152600401611fe890613262565b60405180910390fd5b805181602001fd5b63150b7a0260e01b7bffffffffffffffffffffffffffffffffffffffffffffffffffffffff1916817bffffffffffffffffffffffffffffffffffffffffffffffffffffffff19161491505061204e565b600190505b949350505050565b600073ffffffffffffffffffffffffffffffffffffffff168273ffffffffffffffffffffffffffffffffffffffff1614156120c6576040517f08c379a00000000000000000000000000000000000000000000000000000000081526004016120bd90613382565b60405180910390fd5b6120cf81611326565b1561210f576040517f08c379a000000000000000000000000000000000000000000000000000000000815260040161210690613282565b60405180910390fd5b61211b60008383611e5f565b6001600360008473ffffffffffffffffffffffffffffffffffffffff1673ffffffffffffffffffffffffffffffffffffffff168152602001908152602001600020600082825461216b9190613592565b92505081905550816002600083815260200190815260200160002060006101000a81548173ffffffffffffffffffffffffffffffffffffffff021916908373ffffffffffffffffffffffffffffffffffffffff160217905550808273ffffffffffffffffffffffffffffffffffffffff16600073ffffffffffffffffffffffffffffffffffffffff167fddf252ad1be2c89b69c2b068fc378daa952ba7f163c4a11628f55a4df523b3ef60405160405180910390a45050565b600080823b905060008111915050919050565b8280546122439061375d565b90600052602060002090601f01602090048101928261226557600085556122ac565b82601f1061227e57805160ff19168380011785556122ac565b828001600101855582156122ac579182015b828111156122ab578251825591602001919060010190612290565b5b5090506122b991906122bd565b5090565b5b808211156122d65760008160009055506001016122be565b5090565b60006122ed6122e8846134ae565b61347d565b9050808382526020820190508260005b8581101561232d5781358501612313888261245b565b8452602084019350602083019250506001810190506122fd565b5050509392505050565b600061234a612345846134da565b61347d565b90508281526020810184848401111561236257600080fd5b61236d84828561371b565b509392505050565b60006123886123838461350a565b61347d565b9050828152602081018484840111156123a057600080fd5b6123ab84828561371b565b509392505050565b6000813590506123c2816138d6565b92915050565b600082601f8301126123d957600080fd5b81356123e98482602086016122da565b91505092915050565b600081359050612401816138ed565b92915050565b60008135905061241681613904565b92915050565b60008151905061242b81613904565b92915050565b600082601f83011261244257600080fd5b8135612452848260208601612337565b91505092915050565b600082601f83011261246c57600080fd5b813561247c848260208601612375565b91505092915050565b6000813590506124948161391b565b92915050565b6000602082840312156124ac57600080fd5b60006124ba848285016123b3565b91505092915050565b600080604083850312156124d657600080fd5b60006124e4858286016123b3565b92505060206124f5858286016123b3565b9150509250929050565b60008060006060848603121561251457600080fd5b6000612522868287016123b3565b9350506020612533868287016123b3565b925050604061254486828701612485565b9150509250925092565b6000806000806080858703121561256457600080fd5b6000612572878288016123b3565b9450506020612583878288016123b3565b935050604061259487828801612485565b925050606085013567ffffffffffffffff8111156125b157600080fd5b6125bd87828801612431565b91505092959194509250565b600080604083850312156125dc57600080fd5b60006125ea858286016123b3565b92505060206125fb858286016123f2565b9150509250929050565b6000806040838503121561261857600080fd5b6000612626858286016123b3565b925050602061263785828601612485565b9150509250929050565b60008060006060848603121561265657600080fd5b600084013567ffffffffffffffff81111561267057600080fd5b61267c868287016123c8565b935050602061268d86828701612485565b925050604084013567ffffffffffffffff8111156126aa57600080fd5b6126b68682870161245b565b9150509250925092565b6000602082840312156126d257600080fd5b60006126e084828501612407565b91505092915050565b6000602082840312156126fb57600080fd5b60006127098482850161241c565b91505092915050565b60006020828403121561272457600080fd5b600061273284828501612485565b91505092915050565b612744816136a7565b82525050565b612753816136b9565b82525050565b60006127648261354f565b61276e8185613565565b935061277e81856020860161372a565b612787816138c5565b840191505092915050565b600061279d8261355a565b6127a78185613576565b93506127b781856020860161372a565b6127c0816138c5565b840191505092915050565b60006127d68261355a565b6127e08185613587565b93506127f081856020860161372a565b80840191505092915050565b600081546128098161375d565b6128138186613587565b9450600182166000811461282e576001811461283f57612872565b60ff19831686528186019350612872565b6128488561353a565b60005b8381101561286a5781548189015260018201915060208101905061284b565b838801955050505b50505092915050565b6000612888603283613576565b91507f4552433732313a207472616e7366657220746f206e6f6e20455243373231526560008301527f63656976657220696d706c656d656e74657200000000000000000000000000006020830152604082019050919050565b60006128ee601c83613576565b91507f4552433732313a20746f6b656e20616c7265616479206d696e746564000000006000830152602082019050919050565b600061292e602483613576565b91507f4552433732313a207472616e7366657220746f20746865207a65726f2061646460008301527f72657373000000000000000000000000000000000000000000000000000000006020830152604082019050919050565b6000612994601983613576565b91507f4552433732313a20617070726f766520746f2063616c6c6572000000000000006000830152602082019050919050565b60006129d4602c83613576565b91507f4552433732313a206f70657261746f7220717565727920666f72206e6f6e657860008301527f697374656e7420746f6b656e00000000000000000000000000000000000000006020830152604082019050919050565b6000612a3a600d83613587565b91507f3c2f746578743e3c2f7376673e000000000000000000000000000000000000006000830152600d82019050919050565b6000612a7a603883613576565b91507f4552433732313a20617070726f76652063616c6c6572206973206e6f74206f7760008301527f6e6572206e6f7220617070726f76656420666f7220616c6c00000000000000006020830152604082019050919050565b6000612ae0602a83613576565b91507f4552433732313a2062616c616e636520717565727920666f7220746865207a6560008301527f726f2061646472657373000000000000000000000000000000000000000000006020830152604082019050919050565b6000612b46602983613576565b91507f4552433732313a206f776e657220717565727920666f72206e6f6e657869737460008301527f656e7420746f6b656e00000000000000000000000000000000000000000000006020830152604082019050919050565b6000612bac602e83613576565b91507f45524337323155524953746f726167653a2055524920736574206f66206e6f6e60008301527f6578697374656e7420746f6b656e0000000000000000000000000000000000006020830152604082019050919050565b6000612c12600283613587565b91507f227d0000000000000000000000000000000000000000000000000000000000006000830152600282019050919050565b6000612c52602083613576565b91507f4552433732313a206d696e7420746f20746865207a65726f20616464726573736000830152602082019050919050565b6000612c92603183613576565b91507f45524337323155524953746f726167653a2055524920717565727920666f722060008301527f6e6f6e6578697374656e7420746f6b656e0000000000000000000000000000006020830152604082019050919050565b6000612cf8602c83613576565b91507f4552433732313a20617070726f76656420717565727920666f72206e6f6e657860008301527f697374656e7420746f6b656e00000000000000000000000000000000000000006020830152604082019050919050565b6000612d5e602983613576565b91507f4552433732313a207472616e73666572206f6620746f6b656e2074686174206960008301527f73206e6f74206f776e00000000000000000000000000000000000000000000006020830152604082019050919050565b6000612dc4602f83613576565b91507f4552433732314d657461646174613a2055524920717565727920666f72206e6f60008301527f6e6578697374656e7420746f6b656e00000000000000000000000000000000006020830152604082019050919050565b6000612e2a600a83613587565b91507f7b226e616d65223a2022000000000000000000000000000000000000000000006000830152600a82019050919050565b6000612e6a602183613576565b91507f4552433732313a20617070726f76616c20746f2063757272656e74206f776e6560008301527f72000000000000000000000000000000000000000000000000000000000000006020830152604082019050919050565b6000612ed0601d83613587565b91507f646174613a6170706c69636174696f6e2f6a736f6e3b6261736536342c0000006000830152601d82019050919050565b6000612f10603183613576565b91507f4552433732313a207472616e736665722063616c6c6572206973206e6f74206f60008301527f776e6572206e6f7220617070726f7665640000000000000000000000000000006020830152604082019050919050565b6000612f76606083613587565b91507f222c20226465736372697074696f6e223a20224120686967686c79206163636c60008301527f61696d656420636f6c6c656374696f6e206f6620736c617673222c2022696d6160208301527f6765223a2022646174613a696d6167652f7376672b786d6c3b6261736536342c6040830152606082019050919050565b612ffe81613711565b82525050565b600061301082846127cb565b915081905092915050565b600061302782856127cb565b915061303382846127cb565b91508190509392505050565b600061304b82866127cb565b915061305782856127cb565b915061306382846127cb565b9150819050949350505050565b600061307c82876127fc565b915061308882866127cb565b915061309482856127cb565b91506130a082846127cb565b91506130ab82612a2d565b915081905095945050505050565b60006130c482612e1d565b91506130d082856127cb565b91506130db82612f69565b91506130e782846127cb565b91506130f282612c05565b91508190509392505050565b600061310982612ec3565b915061311582846127cb565b915081905092915050565b6000602082019050613135600083018461273b565b92915050565b6000608082019050613150600083018761273b565b61315d602083018661273b565b61316a6040830185612ff5565b818103606083015261317c8184612759565b905095945050505050565b600060408201905061319c600083018561273b565b6131a96020830184612ff5565b9392505050565b60006020820190506131c5600083018461274a565b92915050565b600060208201905081810360008301526131e58184612792565b905092915050565b600060408201905081810360008301526132078185612792565b9050818103602083015261321b8184612792565b90509392505050565b6000606082019050818103600083015261323e8186612792565b905061324d6020830185612ff5565b61325a604083018461273b565b949350505050565b6000602082019050818103600083015261327b8161287b565b9050919050565b6000602082019050818103600083015261329b816128e1565b9050919050565b600060208201905081810360008301526132bb81612921565b9050919050565b600060208201905081810360008301526132db81612987565b9050919050565b600060208201905081810360008301526132fb816129c7565b9050919050565b6000602082019050818103600083015261331b81612a6d565b9050919050565b6000602082019050818103600083015261333b81612ad3565b9050919050565b6000602082019050818103600083015261335b81612b39565b9050919050565b6000602082019050818103600083015261337b81612b9f565b9050919050565b6000602082019050818103600083015261339b81612c45565b9050919050565b600060208201905081810360008301526133bb81612c85565b9050919050565b600060208201905081810360008301526133db81612ceb565b9050919050565b600060208201905081810360008301526133fb81612d51565b9050919050565b6000602082019050818103600083015261341b81612db7565b9050919050565b6000602082019050818103600083015261343b81612e5d565b9050919050565b6000602082019050818103600083015261345b81612f03565b9050919050565b60006020820190506134776000830184612ff5565b92915050565b6000604051905081810181811067ffffffffffffffff821117156134a4576134a3613896565b5b8060405250919050565b600067ffffffffffffffff8211156134c9576134c8613896565b5b602082029050602081019050919050565b600067ffffffffffffffff8211156134f5576134f4613896565b5b601f19601f8301169050602081019050919050565b600067ffffffffffffffff82111561352557613524613896565b5b601f19601f8301169050602081019050919050565b60008190508160005260206000209050919050565b600081519050919050565b600081519050919050565b600082825260208201905092915050565b600082825260208201905092915050565b600081905092915050565b600061359d82613711565b91506135a883613711565b9250827fffffffffffffffffffffffffffffffffffffffffffffffffffffffffffffffff038211156135dd576135dc613809565b5b828201905092915050565b60006135f382613711565b91506135fe83613711565b92508261360e5761360d613838565b5b828204905092915050565b600061362482613711565b915061362f83613711565b9250817fffffffffffffffffffffffffffffffffffffffffffffffffffffffffffffffff048311821515161561366857613667613809565b5b828202905092915050565b600061367e82613711565b915061368983613711565b92508282101561369c5761369b613809565b5b828203905092915050565b60006136b2826136f1565b9050919050565b60008115159050919050565b60007fffffffff0000000000000000000000000000000000000000000000000000000082169050919050565b600073ffffffffffffffffffffffffffffffffffffffff82169050919050565b6000819050919050565b82818337600083830152505050565b60005b8381101561374857808201518184015260208101905061372d565b83811115613757576000848401525b50505050565b6000600282049050600182168061377557607f821691505b6020821081141561378957613788613867565b5b50919050565b600061379a82613711565b91507fffffffffffffffffffffffffffffffffffffffffffffffffffffffffffffffff8214156137cd576137cc613809565b5b600182019050919050565b60006137e382613711565b91506137ee83613711565b9250826137fe576137fd613838565b5b828206905092915050565b7f4e487b7100000000000000000000000000000000000000000000000000000000600052601160045260246000fd5b7f4e487b7100000000000000000000000000000000000000000000000000000000600052601260045260246000fd5b7f4e487b7100000000000000000000000000000000000000000000000000000000600052602260045260246000fd5b7f4e487b7100000000000000000000000000000000000000000000000000000000600052604160045260246000fd5b6000601f19601f8301169050919050565b6138df816136a7565b81146138ea57600080fd5b50565b6138f6816136b9565b811461390157600080fd5b50565b61390d816136c5565b811461391857600080fd5b50565b61392481613711565b811461392f57600080fd5b5056fe4142434445464748494a4b4c4d4e4f505152535455565758595a6162636465666768696a6b6c6d6e6f707172737475767778797a303132333435363738392b2f416e204e4654202f7720494420257320686173206265656e206d696e74656420746f202573a2646970667358221220d465c74c2c1c5c38326f8ef38f5927a265fc68ee98b163c2e772524eaa5ba44864736f6c634300080000333c73766720786d6c6e733d27687474703a2f2f7777772e77332e6f72672f323030302f73766727207072657365727665417370656374526174696f3d27784d696e594d696e206d656574272076696577426f783d273020302033353020333530273e3c7374796c653e2e62617365207b2066696c6c3a2077686974653b20666f6e742d66616d696c793a2073657269663b20666f6e742d73697a653a20323470783b207d3c2f7374796c653e3c726563742077696474683d273130302527206865696768743d2731303025272066696c6c3d27626c61636b27202f3e3c7465787420783d273530252720793d273530252720636c6173733d27626173652720646f6d696e616e742d626173656c696e653d276d6964646c652720746578742d616e63686f723d276d6964646c65273e",
  "linkReferences": {},
  "deployedLinkReferences": {}
}