{
  "_format": "hh-sol-artifact-1",
  "contractName": "NFT",
  "sourceName": "contracts/NFT.sol",
  "abi": [
    {
      "inputs": [],
      "stateMutability": "nonpayable",
      "type": "constructor"
    },
    {
      "anonymous": false,
      "inputs": [
        {
          "indexed": true,
          "internalType": "address",
          "name": "owner",
          "type": "address"
        },
        {
          "indexed": true,
          "internalType": "address",
          "name": "approved",
          "type": "address"
        },
        {
          "indexed": true,
          "internalType": "uint256",
          "name": "tokenId",
          "type": "uint256"
        }
      ],
      "name": "Approval",
      "type": "event"
    },
    {
      "anonymous": false,
      "inputs": [
        {
          "indexed": true,
          "internalType": "address",
          "name": "owner",
          "type": "address"
        },
        {
          "indexed": true,
          "internalType": "address",
          "name": "operator",
          "type": "address"
        },
        {
          "indexed": false,
          "internalType": "bool",
          "name": "approved",
          "type": "bool"
        }
      ],
      "name": "ApprovalForAll",
      "type": "event"
    },
    {
      "anonymous": false,
      "inputs": [
        {
          "indexed": true,
          "internalType": "address",
          "name": "from",
          "type": "address"
        },
        {
          "indexed": true,
          "internalType": "address",
          "name": "to",
          "type": "address"
        },
        {
          "indexed": true,
          "internalType": "uint256",
          "name": "tokenId",
          "type": "uint256"
        }
      ],
      "name": "Transfer",
      "type": "event"
    },
    {
      "inputs": [
        {
          "internalType": "address",
          "name": "to",
          "type": "address"
        },
        {
          "internalType": "uint256",
          "name": "tokenId",
          "type": "uint256"
        }
      ],
      "name": "approve",
      "outputs": [],
      "stateMutability": "nonpayable",
      "type": "function"
    },
    {
      "inputs": [
        {
          "internalType": "address",
          "name": "owner",
          "type": "address"
        }
      ],
      "name": "balanceOf",
      "outputs": [
        {
          "internalType": "uint256",
          "name": "",
          "type": "uint256"
        }
      ],
      "stateMutability": "view",
      "type": "function"
    },
    {
      "inputs": [],
      "name": "createNFT",
      "outputs": [],
      "stateMutability": "nonpayable",
      "type": "function"
    },
    {
      "inputs": [
        {
          "internalType": "uint256",
          "name": "tokenId",
          "type": "uint256"
        }
      ],
      "name": "getApproved",
      "outputs": [
        {
          "internalType": "address",
          "name": "",
          "type": "address"
        }
      ],
      "stateMutability": "view",
      "type": "function"
    },
    {
      "inputs": [
        {
          "internalType": "address",
          "name": "owner",
          "type": "address"
        },
        {
          "internalType": "address",
          "name": "operator",
          "type": "address"
        }
      ],
      "name": "isApprovedForAll",
      "outputs": [
        {
          "internalType": "bool",
          "name": "",
          "type": "bool"
        }
      ],
      "stateMutability": "view",
      "type": "function"
    },
    {
      "inputs": [],
      "name": "name",
      "outputs": [
        {
          "internalType": "string",
          "name": "",
          "type": "string"
        }
      ],
      "stateMutability": "view",
      "type": "function"
    },
    {
      "inputs": [
        {
          "internalType": "uint256",
          "name": "tokenId",
          "type": "uint256"
        }
      ],
      "name": "ownerOf",
      "outputs": [
        {
          "internalType": "address",
          "name": "",
          "type": "address"
        }
      ],
      "stateMutability": "view",
      "type": "function"
    },
    {
      "inputs": [
        {
          "internalType": "string[]",
          "name": "_wordArray",
          "type": "string[]"
        },
        {
          "internalType": "uint256",
          "name": "_tokenId",
          "type": "uint256"
        },
        {
          "internalType": "string",
          "name": "_randomWord",
          "type": "string"
        }
      ],
      "name": "pickRandomWord",
      "outputs": [
        {
          "internalType": "string",
          "name": "",
          "type": "string"
        }
      ],
      "stateMutability": "pure",
      "type": "function"
    },
    {
      "inputs": [
        {
          "internalType": "address",
          "name": "from",
          "type": "address"
        },
        {
          "internalType": "address",
          "name": "to",
          "type": "address"
        },
        {
          "internalType": "uint256",
          "name": "tokenId",
          "type": "uint256"
        }
      ],
      "name": "safeTransferFrom",
      "outputs": [],
      "stateMutability": "nonpayable",
      "type": "function"
    },
    {
      "inputs": [
        {
          "internalType": "address",
          "name": "from",
          "type": "address"
        },
        {
          "internalType": "address",
          "name": "to",
          "type": "address"
        },
        {
          "internalType": "uint256",
          "name": "tokenId",
          "type": "uint256"
        },
        {
          "internalType": "bytes",
          "name": "_data",
          "type": "bytes"
        }
      ],
      "name": "safeTransferFrom",
      "outputs": [],
      "stateMutability": "nonpayable",
      "type": "function"
    },
    {
      "inputs": [
        {
          "internalType": "address",
          "name": "operator",
          "type": "address"
        },
        {
          "internalType": "bool",
          "name": "approved",
          "type": "bool"
        }
      ],
      "name": "setApprovalForAll",
      "outputs": [],
      "stateMutability": "nonpayable",
      "type": "function"
    },
    {
      "inputs": [
        {
          "internalType": "bytes4",
          "name": "interfaceId",
          "type": "bytes4"
        }
      ],
      "name": "supportsInterface",
      "outputs": [
        {
          "internalType": "bool",
          "name": "",
          "type": "bool"
        }
      ],
      "stateMutability": "view",
      "type": "function"
    },
    {
      "inputs": [],
      "name": "symbol",
      "outputs": [
        {
          "internalType": "string",
          "name": "",
          "type": "string"
        }
      ],
      "stateMutability": "view",
      "type": "function"
    },
    {
      "inputs": [
        {
          "internalType": "uint256",
          "name": "tokenId",
          "type": "uint256"
        }
      ],
      "name": "tokenURI",
      "outputs": [
        {
          "internalType": "string",
          "name": "",
          "type": "string"
        }
      ],
      "stateMutability": "view",
      "type": "function"
    },
    {
      "inputs": [
        {
          "internalType": "address",
          "name": "from",
          "type": "address"
        },
        {
          "internalType": "address",
          "name": "to",
          "type": "address"
        },
        {
          "internalType": "uint256",
          "name": "tokenId",
          "type": "uint256"
        }
      ],
      "name": "transferFrom",
      "outputs": [],
      "stateMutability": "nonpayable",
      "type": "function"
    }
  ],
  "bytecode": "0x608060405260405180608001604052806040518060400160405280600781526020017f50616e63616b650000000000000000000000000000000000000000000000000081525081526020016040518060400160405280600581526020017f50697a7a6100000000000000000000000000000000000000000000000000000081525081526020016040518060400160405280600681526020017f4d756666696e000000000000000000000000000000000000000000000000000081525081526020016040518060400160405280600781526020017f506f70636f726e0000000000000000000000000000000000000000000000000081525081525060089060046200010b9291906200051c565b5060405180608001604052806040518060400160405280600981526020017f43726f636f64696c65000000000000000000000000000000000000000000000081525081526020016040518060400160405280600681526020017f496775616e61000000000000000000000000000000000000000000000000000081525081526020016040518060400160405280600481526020017f4c696f6e0000000000000000000000000000000000000000000000000000000081525081526020016040518060400160405280600381526020017f52617400000000000000000000000000000000000000000000000000000000008152508152506009906004620002139291906200051c565b5060405180608001604052806040518060400160405280600781526020017f42696379636c650000000000000000000000000000000000000000000000000081525081526020016040518060400160405280600681526020017f43616272696f000000000000000000000000000000000000000000000000000081525081526020016040518060400160405280600481526020017f54616e6b0000000000000000000000000000000000000000000000000000000081525081526020016040518060400160405280600481526020017f5461786900000000000000000000000000000000000000000000000000000000815250815250600a9060046200031b9291906200051c565b5060405180610160016040528061012f81526020016200412661012f9139600b90805190602001906200035092919062000583565b503480156200035e57600080fd5b506040518060400160405280600781526020017f536c61764e4654000000000000000000000000000000000000000000000000008152506040518060400160405280600481526020017f534e4654000000000000000000000000000000000000000000000000000000008152508160009080519060200190620003e392919062000583565b508060019080519060200190620003fc92919062000583565b5050506200044a6040518060400160405280601181526020017f466972737420636f6e74726163742e2e2e0000000000000000000000000000008152506200045060201b620011c71760201c565b620007ce565b620004f081604051602401620004679190620006e2565b6040516020818303038152906040527f41304fac000000000000000000000000000000000000000000000000000000007bffffffffffffffffffffffffffffffffffffffffffffffffffffffff19166020820180517bffffffffffffffffffffffffffffffffffffffffffffffffffffffff8381831617835250505050620004f360201b60201c565b50565b60008151905060006a636f6e736f6c652e6c6f679050602083016000808483855afa5050505050565b82805482825590600052602060002090810192821562000570579160200282015b828111156200056f5782518290805190602001906200055e92919062000583565b50916020019190600101906200053d565b5b5090506200057f919062000614565b5090565b828054620005919062000758565b90600052602060002090601f016020900481019282620005b5576000855562000601565b82601f10620005d057805160ff191683800117855562000601565b8280016001018555821562000601579182015b8281111562000600578251825591602001919060010190620005e3565b5b5090506200061091906200063c565b5090565b5b808211156200063857600081816200062e91906200065b565b5060010162000615565b5090565b5b80821115620006575760008160009055506001016200063d565b5090565b508054620006699062000758565b6000825580601f106200067d57506200069e565b601f0160209004906000526020600020908101906200069d91906200063c565b5b50565b6000620006ae8262000706565b620006ba818562000711565b9350620006cc81856020860162000722565b620006d781620007bd565b840191505092915050565b60006020820190508181036000830152620006fe8184620006a1565b905092915050565b600081519050919050565b600082825260208201905092915050565b60005b838110156200074257808201518184015260208101905062000725565b8381111562000752576000848401525b50505050565b600060028204905060018216806200077157607f821691505b602082108114156200078857620007876200078e565b5b50919050565b7f4e487b7100000000000000000000000000000000000000000000000000000000600052602260045260246000fd5b6000601f19601f8301169050919050565b61394880620007de6000396000f3fe608060405234801561001057600080fd5b50600436106100f55760003560e01c806370a0823111610097578063b88d4fde11610066578063b88d4fde14610270578063c0dcbbed1461028c578063c87b56dd146102bc578063e985e9c5146102ec576100f5565b806370a08231146101fc5780638a97ec2a1461022c57806395d89b4114610236578063a22cb46514610254576100f5565b8063095ea7b3116100d3578063095ea7b31461017857806323b872dd1461019457806342842e0e146101b05780636352211e146101cc576100f5565b806301ffc9a7146100fa57806306fdde031461012a578063081812fc14610148575b600080fd5b610114600480360381019061010f9190612664565b61031c565b604051610121919061312b565b60405180910390f35b6101326103fe565b60405161013f9190613146565b60405180910390f35b610162600480360381019061015d91906126b6565b610490565b60405161016f91906130c4565b60405180910390f35b610192600480360381019061018d91906125a9565b610515565b005b6101ae60048036038101906101a991906124a3565b61062d565b005b6101ca60048036038101906101c591906124a3565b61068d565b005b6101e660048036038101906101e191906126b6565b6106ad565b6040516101f391906130c4565b60405180910390f35b6102166004803603810190610211919061243e565b61075f565b60405161022391906133dd565b60405180910390f35b610234610817565b005b61023e610cda565b60405161024b9190613146565b60405180910390f35b61026e6004803603810190610269919061256d565b610d6c565b005b61028a600480360381019061028591906124f2565b610eed565b005b6102a660048036038101906102a191906125e5565b610f4f565b6040516102b39190613146565b60405180910390f35b6102d660048036038101906102d191906126b6565b610fe1565b6040516102e39190613146565b60405180910390f35b61030660048036038101906103019190612467565b611133565b604051610313919061312b565b60405180910390f35b60007f80ac58cd000000000000000000000000000000000000000000000000000000007bffffffffffffffffffffffffffffffffffffffffffffffffffffffff1916827bffffffffffffffffffffffffffffffffffffffffffffffffffffffff191614806103e757507f5b5e139f000000000000000000000000000000000000000000000000000000007bffffffffffffffffffffffffffffffffffffffffffffffffffffffff1916827bffffffffffffffffffffffffffffffffffffffffffffffffffffffff1916145b806103f757506103f682611260565b5b9050919050565b60606000805461040d906136d8565b80601f0160208091040260200160405190810160405280929190818152602001828054610439906136d8565b80156104865780601f1061045b57610100808354040283529160200191610486565b820191906000526020600020905b81548152906001019060200180831161046957829003601f168201915b5050505050905090565b600061049b826112ca565b6104da576040517f08c379a00000000000000000000000000000000000000000000000000000000081526004016104d19061333d565b60405180910390fd5b6004600083815260200190815260200160002060009054906101000a900473ffffffffffffffffffffffffffffffffffffffff169050919050565b6000610520826106ad565b90508073ffffffffffffffffffffffffffffffffffffffff168373ffffffffffffffffffffffffffffffffffffffff161415610591576040517f08c379a00000000000000000000000000000000000000000000000000000000081526004016105889061339d565b60405180910390fd5b8073ffffffffffffffffffffffffffffffffffffffff166105b0611336565b73ffffffffffffffffffffffffffffffffffffffff1614806105df57506105de816105d9611336565b611133565b5b61061e576040517f08c379a00000000000000000000000000000000000000000000000000000000081526004016106159061327d565b60405180910390fd5b610628838361133e565b505050565b61063e610638611336565b826113f7565b61067d576040517f08c379a0000000000000000000000000000000000000000000000000000000008152600401610674906133bd565b60405180910390fd5b6106888383836114d5565b505050565b6106a883838360405180602001604052806000815250610eed565b505050565b6000806002600084815260200190815260200160002060009054906101000a900473ffffffffffffffffffffffffffffffffffffffff169050600073ffffffffffffffffffffffffffffffffffffffff168173ffffffffffffffffffffffffffffffffffffffff161415610756576040517f08c379a000000000000000000000000000000000000000000000000000000000815260040161074d906132bd565b60405180910390fd5b80915050919050565b60008073ffffffffffffffffffffffffffffffffffffffff168273ffffffffffffffffffffffffffffffffffffffff1614156107d0576040517f08c379a00000000000000000000000000000000000000000000000000000000081526004016107c79061329d565b60405180910390fd5b600360008373ffffffffffffffffffffffffffffffffffffffff1673ffffffffffffffffffffffffffffffffffffffff168152602001908152602001600020549050919050565b60006108236007611731565b905060006109386008805480602002602001604051908101604052809291908181526020016000905b828210156108f857838290600052602060002001805461086b906136d8565b80601f0160208091040260200160405190810160405280929190818152602001828054610897906136d8565b80156108e45780601f106108b9576101008083540402835291602001916108e4565b820191906000526020600020905b8154815290600101906020018083116108c757829003601f168201915b50505050508152602001906001019061084c565b50505050836040518060400160405280600881526020017f6669696969727374000000000000000000000000000000000000000000000000815250610f4f565b90506000610a4d6009805480602002602001604051908101604052809291908181526020016000905b82821015610a0d578382906000526020600020018054610980906136d8565b80601f01602080910402602001604051908101604052809291908181526020018280546109ac906136d8565b80156109f95780601f106109ce576101008083540402835291602001916109f9565b820191906000526020600020905b8154815290600101906020018083116109dc57829003601f168201915b505050505081526020019060010190610961565b50505050846040518060400160405280600881526020017f7365636f6f6f6e64000000000000000000000000000000000000000000000000815250610f4f565b90506000610b62600a805480602002602001604051908101604052809291908181526020016000905b82821015610b22578382906000526020600020018054610a95906136d8565b80601f0160208091040260200160405190810160405280929190818152602001828054610ac1906136d8565b8015610b0e5780601f10610ae357610100808354040283529160200191610b0e565b820191906000526020600020905b815481529060010190602001808311610af157829003601f168201915b505050505081526020019060010190610a76565b50505050856040518060400160405280600981526020017f7468686869696972640000000000000000000000000000000000000000000000815250610f4f565b90506000838383604051602001610b7b93929190612fe3565b60405160208183030381529060405290506000600b858585604051602001610ba69493929190613014565b6040516020818303038152906040529050610bf66040518060400160405280600a81526020017f46696e616c5376673a20000000000000000000000000000000000000000000008152508261173f565b6000610c2a83610c05846117db565b604051602001610c1692919061305d565b6040516020818303038152906040526117db565b9050600081604051602001610c3f91906130a2565b6040516020818303038152906040529050610c8f6040518060400160405280600981526020017f546f6b656e2055726900000000000000000000000000000000000000000000008152508261173f565b610c993389611999565b610ca388826119b7565b610cc66040518060600160405280602581526020016138ee602591398933611a2b565b610cd06007611aca565b5050505050505050565b606060018054610ce9906136d8565b80601f0160208091040260200160405190810160405280929190818152602001828054610d15906136d8565b8015610d625780601f10610d3757610100808354040283529160200191610d62565b820191906000526020600020905b815481529060010190602001808311610d4557829003601f168201915b5050505050905090565b610d74611336565b73ffffffffffffffffffffffffffffffffffffffff168273ffffffffffffffffffffffffffffffffffffffff161415610de2576040517f08c379a0000000000000000000000000000000000000000000000000000000008152600401610dd99061323d565b60405180910390fd5b8060056000610def611336565b73ffffffffffffffffffffffffffffffffffffffff1673ffffffffffffffffffffffffffffffffffffffff16815260200190815260200160002060008473ffffffffffffffffffffffffffffffffffffffff1673ffffffffffffffffffffffffffffffffffffffff16815260200190815260200160002060006101000a81548160ff0219169083151502179055508173ffffffffffffffffffffffffffffffffffffffff16610e9c611336565b73ffffffffffffffffffffffffffffffffffffffff167f17307eab39ab6107e8899845ad3d59bd9653f200f220920489ca2b5937696c3183604051610ee1919061312b565b60405180910390a35050565b610efe610ef8611336565b836113f7565b610f3d576040517f08c379a0000000000000000000000000000000000000000000000000000000008152600401610f34906133bd565b60405180910390fd5b610f4984848484611ae0565b50505050565b60606000610f8583610f6086611b3c565b604051602001610f71929190612fbf565b604051602081830303815290604052611ce9565b9050845181610f949190613753565b9050848181518110610fcf577f4e487b7100000000000000000000000000000000000000000000000000000000600052603260045260246000fd5b60200260200101519150509392505050565b6060610fec826112ca565b61102b576040517f08c379a00000000000000000000000000000000000000000000000000000000081526004016110229061331d565b60405180910390fd5b600060066000848152602001908152602001600020805461104b906136d8565b80601f0160208091040260200160405190810160405280929190818152602001828054611077906136d8565b80156110c45780601f10611099576101008083540402835291602001916110c4565b820191906000526020600020905b8154815290600101906020018083116110a757829003601f168201915b5050505050905060006110d5611d1c565b90506000815114156110eb57819250505061112e565b600082511115611120578082604051602001611108929190612fbf565b6040516020818303038152906040529250505061112e565b61112984611d33565b925050505b919050565b6000600560008473ffffffffffffffffffffffffffffffffffffffff1673ffffffffffffffffffffffffffffffffffffffff16815260200190815260200160002060008373ffffffffffffffffffffffffffffffffffffffff1673ffffffffffffffffffffffffffffffffffffffff16815260200190815260200160002060009054906101000a900460ff16905092915050565b61125d816040516024016111db9190613146565b6040516020818303038152906040527f41304fac000000000000000000000000000000000000000000000000000000007bffffffffffffffffffffffffffffffffffffffffffffffffffffffff19166020820180517bffffffffffffffffffffffffffffffffffffffffffffffffffffffff8381831617835250505050611dda565b50565b60007f01ffc9a7000000000000000000000000000000000000000000000000000000007bffffffffffffffffffffffffffffffffffffffffffffffffffffffff1916827bffffffffffffffffffffffffffffffffffffffffffffffffffffffff1916149050919050565b60008073ffffffffffffffffffffffffffffffffffffffff166002600084815260200190815260200160002060009054906101000a900473ffffffffffffffffffffffffffffffffffffffff1673ffffffffffffffffffffffffffffffffffffffff1614159050919050565b600033905090565b816004600083815260200190815260200160002060006101000a81548173ffffffffffffffffffffffffffffffffffffffff021916908373ffffffffffffffffffffffffffffffffffffffff160217905550808273ffffffffffffffffffffffffffffffffffffffff166113b1836106ad565b73ffffffffffffffffffffffffffffffffffffffff167f8c5be1e5ebec7d5bd14f71427d1e84f3dd0314c0f7b2291e5b200ac8c7c3b92560405160405180910390a45050565b6000611402826112ca565b611441576040517f08c379a00000000000000000000000000000000000000000000000000000000081526004016114389061325d565b60405180910390fd5b600061144c836106ad565b90508073ffffffffffffffffffffffffffffffffffffffff168473ffffffffffffffffffffffffffffffffffffffff1614806114bb57508373ffffffffffffffffffffffffffffffffffffffff166114a384610490565b73ffffffffffffffffffffffffffffffffffffffff16145b806114cc57506114cb8185611133565b5b91505092915050565b8273ffffffffffffffffffffffffffffffffffffffff166114f5826106ad565b73ffffffffffffffffffffffffffffffffffffffff161461154b576040517f08c379a00000000000000000000000000000000000000000000000000000000081526004016115429061335d565b60405180910390fd5b600073ffffffffffffffffffffffffffffffffffffffff168273ffffffffffffffffffffffffffffffffffffffff1614156115bb576040517f08c379a00000000000000000000000000000000000000000000000000000000081526004016115b29061321d565b60405180910390fd5b6115c6838383611e03565b6115d160008261133e565b6001600360008573ffffffffffffffffffffffffffffffffffffffff1673ffffffffffffffffffffffffffffffffffffffff168152602001908152602001600020600082825461162191906135ee565b925050819055506001600360008473ffffffffffffffffffffffffffffffffffffffff1673ffffffffffffffffffffffffffffffffffffffff1681526020019081526020016000206000828254611678919061350d565b92505081905550816002600083815260200190815260200160002060006101000a81548173ffffffffffffffffffffffffffffffffffffffff021916908373ffffffffffffffffffffffffffffffffffffffff160217905550808273ffffffffffffffffffffffffffffffffffffffff168473ffffffffffffffffffffffffffffffffffffffff167fddf252ad1be2c89b69c2b068fc378daa952ba7f163c4a11628f55a4df523b3ef60405160405180910390a4505050565b600081600001549050919050565b6117d78282604051602401611755929190613168565b6040516020818303038152906040527f4b5c4277000000000000000000000000000000000000000000000000000000007bffffffffffffffffffffffffffffffffffffffffffffffffffffffff19166020820180517bffffffffffffffffffffffffffffffffffffffffffffffffffffffff8381831617835250505050611dda565b5050565b606060008251905060008114156118045760405180602001604052806000815250915050611994565b60006003600283611815919061350d565b61181f9190613563565b600461182b9190613594565b9050600060208261183c919061350d565b67ffffffffffffffff81111561187b577f4e487b7100000000000000000000000000000000000000000000000000000000600052604160045260246000fd5b6040519080825280601f01601f1916602001820160405280156118ad5781602001600182028036833780820191505090505b50905060006040518060600160405280604081526020016138ae604091399050600181016020830160005b868110156119515760038101905062ffffff818a015116603f8160121c168401518060081b905060ff603f83600c1c1686015116810190508060081b905060ff603f8360061c1686015116810190508060081b905060ff603f831686015116810190508060e01b905080845260048401935050506118d8565b50600386066001811461196b576002811461197b57611986565b613d3d60f01b6002830352611986565b603d60f81b60018303525b508484525050819450505050505b919050565b6119b3828260405180602001604052806000815250611e08565b5050565b6119c0826112ca565b6119ff576040517f08c379a00000000000000000000000000000000000000000000000000000000081526004016119f6906132dd565b60405180910390fd5b80600660008481526020019081526020016000209080519060200190611a269291906121db565b505050565b611ac5838383604051602401611a439392919061319f565b6040516020818303038152906040527fe3849f79000000000000000000000000000000000000000000000000000000007bffffffffffffffffffffffffffffffffffffffffffffffffffffffff19166020820180517bffffffffffffffffffffffffffffffffffffffffffffffffffffffff8381831617835250505050611dda565b505050565b6001816000016000828254019250508190555050565b611aeb8484846114d5565b611af784848484611e63565b611b36576040517f08c379a0000000000000000000000000000000000000000000000000000000008152600401611b2d906131dd565b60405180910390fd5b50505050565b60606000821415611b84576040518060400160405280600181526020017f30000000000000000000000000000000000000000000000000000000000000008152509050611ce4565b600082905060005b60008214611bb6578080611b9f9061370a565b915050600a82611baf9190613563565b9150611b8c565b60008167ffffffffffffffff811115611bf8577f4e487b7100000000000000000000000000000000000000000000000000000000600052604160045260246000fd5b6040519080825280601f01601f191660200182016040528015611c2a5781602001600182028036833780820191505090505b5090505b60008514611cdd57600182611c4391906135ee565b9150600a85611c529190613753565b6030611c5e919061350d565b60f81b818381518110611c9a577f4e487b7100000000000000000000000000000000000000000000000000000000600052603260045260246000fd5b60200101907effffffffffffffffffffffffffffffffffffffffffffffffffffffffffffff1916908160001a905350600a85611cd69190613563565b9450611c2e565b8093505050505b919050565b600081604051602001611cfc9190612fa8565b6040516020818303038152906040528051906020012060001c9050919050565b606060405180602001604052806000815250905090565b6060611d3e826112ca565b611d7d576040517f08c379a0000000000000000000000000000000000000000000000000000000008152600401611d749061337d565b60405180910390fd5b6000611d87611d1c565b90506000815111611da75760405180602001604052806000815250611dd2565b80611db184611b3c565b604051602001611dc2929190612fbf565b6040516020818303038152906040525b915050919050565b60008151905060006a636f6e736f6c652e6c6f679050602083016000808483855afa5050505050565b505050565b611e128383611ffa565b611e1f6000848484611e63565b611e5e576040517f08c379a0000000000000000000000000000000000000000000000000000000008152600401611e55906131dd565b60405180910390fd5b505050565b6000611e848473ffffffffffffffffffffffffffffffffffffffff166121c8565b15611fed578373ffffffffffffffffffffffffffffffffffffffff1663150b7a02611ead611336565b8786866040518563ffffffff1660e01b8152600401611ecf94939291906130df565b602060405180830381600087803b158015611ee957600080fd5b505af1925050508015611f1a57506040513d601f19601f82011682018060405250810190611f17919061268d565b60015b611f9d573d8060008114611f4a576040519150601f19603f3d011682016040523d82523d6000602084013e611f4f565b606091505b50600081511415611f95576040517f08c379a0000000000000000000000000000000000000000000000000000000008152600401611f8c906131dd565b60405180910390fd5b805181602001fd5b63150b7a0260e01b7bffffffffffffffffffffffffffffffffffffffffffffffffffffffff1916817bffffffffffffffffffffffffffffffffffffffffffffffffffffffff191614915050611ff2565b600190505b949350505050565b600073ffffffffffffffffffffffffffffffffffffffff168273ffffffffffffffffffffffffffffffffffffffff16141561206a576040517f08c379a0000000000000000000000000000000000000000000000000000000008152600401612061906132fd565b60405180910390fd5b612073816112ca565b156120b3576040517f08c379a00000000000000000000000000000000000000000000000000000000081526004016120aa906131fd565b60405180910390fd5b6120bf60008383611e03565b6001600360008473ffffffffffffffffffffffffffffffffffffffff1673ffffffffffffffffffffffffffffffffffffffff168152602001908152602001600020600082825461210f919061350d565b92505081905550816002600083815260200190815260200160002060006101000a81548173ffffffffffffffffffffffffffffffffffffffff021916908373ffffffffffffffffffffffffffffffffffffffff160217905550808273ffffffffffffffffffffffffffffffffffffffff16600073ffffffffffffffffffffffffffffffffffffffff167fddf252ad1be2c89b69c2b068fc378daa952ba7f163c4a11628f55a4df523b3ef60405160405180910390a45050565b600080823b905060008111915050919050565b8280546121e7906136d8565b90600052602060002090601f0160209004810192826122095760008555612250565b82601f1061222257805160ff1916838001178555612250565b82800160010185558215612250579182015b8281111561224f578251825591602001919060010190612234565b5b50905061225d9190612261565b5090565b5b8082111561227a576000816000905550600101612262565b5090565b600061229161228c84613429565b6133f8565b9050808382526020820190508260005b858110156122d157813585016122b788826123ff565b8452602084019350602083019250506001810190506122a1565b5050509392505050565b60006122ee6122e984613455565b6133f8565b90508281526020810184848401111561230657600080fd5b612311848285613696565b509392505050565b600061232c61232784613485565b6133f8565b90508281526020810184848401111561234457600080fd5b61234f848285613696565b509392505050565b60008135905061236681613851565b92915050565b600082601f83011261237d57600080fd5b813561238d84826020860161227e565b91505092915050565b6000813590506123a581613868565b92915050565b6000813590506123ba8161387f565b92915050565b6000815190506123cf8161387f565b92915050565b600082601f8301126123e657600080fd5b81356123f68482602086016122db565b91505092915050565b600082601f83011261241057600080fd5b8135612420848260208601612319565b91505092915050565b60008135905061243881613896565b92915050565b60006020828403121561245057600080fd5b600061245e84828501612357565b91505092915050565b6000806040838503121561247a57600080fd5b600061248885828601612357565b925050602061249985828601612357565b9150509250929050565b6000806000606084860312156124b857600080fd5b60006124c686828701612357565b93505060206124d786828701612357565b92505060406124e886828701612429565b9150509250925092565b6000806000806080858703121561250857600080fd5b600061251687828801612357565b945050602061252787828801612357565b935050604061253887828801612429565b925050606085013567ffffffffffffffff81111561255557600080fd5b612561878288016123d5565b91505092959194509250565b6000806040838503121561258057600080fd5b600061258e85828601612357565b925050602061259f85828601612396565b9150509250929050565b600080604083850312156125bc57600080fd5b60006125ca85828601612357565b92505060206125db85828601612429565b9150509250929050565b6000806000606084860312156125fa57600080fd5b600084013567ffffffffffffffff81111561261457600080fd5b6126208682870161236c565b935050602061263186828701612429565b925050604084013567ffffffffffffffff81111561264e57600080fd5b61265a868287016123ff565b9150509250925092565b60006020828403121561267657600080fd5b6000612684848285016123ab565b91505092915050565b60006020828403121561269f57600080fd5b60006126ad848285016123c0565b91505092915050565b6000602082840312156126c857600080fd5b60006126d684828501612429565b91505092915050565b6126e881613622565b82525050565b6126f781613634565b82525050565b6000612708826134ca565b61271281856134e0565b93506127228185602086016136a5565b61272b81613840565b840191505092915050565b6000612741826134d5565b61274b81856134f1565b935061275b8185602086016136a5565b61276481613840565b840191505092915050565b600061277a826134d5565b6127848185613502565b93506127948185602086016136a5565b80840191505092915050565b600081546127ad816136d8565b6127b78186613502565b945060018216600081146127d257600181146127e357612816565b60ff19831686528186019350612816565b6127ec856134b5565b60005b8381101561280e578154818901526001820191506020810190506127ef565b838801955050505b50505092915050565b600061282c6032836134f1565b91507f4552433732313a207472616e7366657220746f206e6f6e20455243373231526560008301527f63656976657220696d706c656d656e74657200000000000000000000000000006020830152604082019050919050565b6000612892601c836134f1565b91507f4552433732313a20746f6b656e20616c7265616479206d696e746564000000006000830152602082019050919050565b60006128d26024836134f1565b91507f4552433732313a207472616e7366657220746f20746865207a65726f2061646460008301527f72657373000000000000000000000000000000000000000000000000000000006020830152604082019050919050565b60006129386019836134f1565b91507f4552433732313a20617070726f766520746f2063616c6c6572000000000000006000830152602082019050919050565b6000612978602c836134f1565b91507f4552433732313a206f70657261746f7220717565727920666f72206e6f6e657860008301527f697374656e7420746f6b656e00000000000000000000000000000000000000006020830152604082019050919050565b60006129de600d83613502565b91507f3c2f746578743e3c2f7376673e000000000000000000000000000000000000006000830152600d82019050919050565b6000612a1e6038836134f1565b91507f4552433732313a20617070726f76652063616c6c6572206973206e6f74206f7760008301527f6e6572206e6f7220617070726f76656420666f7220616c6c00000000000000006020830152604082019050919050565b6000612a84602a836134f1565b91507f4552433732313a2062616c616e636520717565727920666f7220746865207a6560008301527f726f2061646472657373000000000000000000000000000000000000000000006020830152604082019050919050565b6000612aea6029836134f1565b91507f4552433732313a206f776e657220717565727920666f72206e6f6e657869737460008301527f656e7420746f6b656e00000000000000000000000000000000000000000000006020830152604082019050919050565b6000612b50602e836134f1565b91507f45524337323155524953746f726167653a2055524920736574206f66206e6f6e60008301527f6578697374656e7420746f6b656e0000000000000000000000000000000000006020830152604082019050919050565b6000612bb6600283613502565b91507f227d0000000000000000000000000000000000000000000000000000000000006000830152600282019050919050565b6000612bf66020836134f1565b91507f4552433732313a206d696e7420746f20746865207a65726f20616464726573736000830152602082019050919050565b6000612c366031836134f1565b91507f45524337323155524953746f726167653a2055524920717565727920666f722060008301527f6e6f6e6578697374656e7420746f6b656e0000000000000000000000000000006020830152604082019050919050565b6000612c9c602c836134f1565b91507f4552433732313a20617070726f76656420717565727920666f72206e6f6e657860008301527f697374656e7420746f6b656e00000000000000000000000000000000000000006020830152604082019050919050565b6000612d026029836134f1565b91507f4552433732313a207472616e73666572206f6620746f6b656e2074686174206960008301527f73206e6f74206f776e00000000000000000000000000000000000000000000006020830152604082019050919050565b6000612d68602f836134f1565b91507f4552433732314d657461646174613a2055524920717565727920666f72206e6f60008301527f6e6578697374656e7420746f6b656e00000000000000000000000000000000006020830152604082019050919050565b6000612dce600a83613502565b91507f7b226e616d65223a2022000000000000000000000000000000000000000000006000830152600a82019050919050565b6000612e0e6021836134f1565b91507f4552433732313a20617070726f76616c20746f2063757272656e74206f776e6560008301527f72000000000000000000000000000000000000000000000000000000000000006020830152604082019050919050565b6000612e74601d83613502565b91507f646174613a6170706c69636174696f6e2f6a736f6e3b6261736536342c0000006000830152601d82019050919050565b6000612eb46031836134f1565b91507f4552433732313a207472616e736665722063616c6c6572206973206e6f74206f60008301527f776e6572206e6f7220617070726f7665640000000000000000000000000000006020830152604082019050919050565b6000612f1a606083613502565b91507f222c20226465736372697074696f6e223a20224120686967686c79206163636c60008301527f61696d656420636f6c6c656374696f6e206f6620736c617673222c2022696d6160208301527f6765223a2022646174613a696d6167652f7376672b786d6c3b6261736536342c6040830152606082019050919050565b612fa28161368c565b82525050565b6000612fb4828461276f565b915081905092915050565b6000612fcb828561276f565b9150612fd7828461276f565b91508190509392505050565b6000612fef828661276f565b9150612ffb828561276f565b9150613007828461276f565b9150819050949350505050565b600061302082876127a0565b915061302c828661276f565b9150613038828561276f565b9150613044828461276f565b915061304f826129d1565b915081905095945050505050565b600061306882612dc1565b9150613074828561276f565b915061307f82612f0d565b915061308b828461276f565b915061309682612ba9565b91508190509392505050565b60006130ad82612e67565b91506130b9828461276f565b915081905092915050565b60006020820190506130d960008301846126df565b92915050565b60006080820190506130f460008301876126df565b61310160208301866126df565b61310e6040830185612f99565b818103606083015261312081846126fd565b905095945050505050565b600060208201905061314060008301846126ee565b92915050565b600060208201905081810360008301526131608184612736565b905092915050565b600060408201905081810360008301526131828185612736565b905081810360208301526131968184612736565b90509392505050565b600060608201905081810360008301526131b98186612736565b90506131c86020830185612f99565b6131d560408301846126df565b949350505050565b600060208201905081810360008301526131f68161281f565b9050919050565b6000602082019050818103600083015261321681612885565b9050919050565b60006020820190508181036000830152613236816128c5565b9050919050565b600060208201905081810360008301526132568161292b565b9050919050565b600060208201905081810360008301526132768161296b565b9050919050565b6000602082019050818103600083015261329681612a11565b9050919050565b600060208201905081810360008301526132b681612a77565b9050919050565b600060208201905081810360008301526132d681612add565b9050919050565b600060208201905081810360008301526132f681612b43565b9050919050565b6000602082019050818103600083015261331681612be9565b9050919050565b6000602082019050818103600083015261333681612c29565b9050919050565b6000602082019050818103600083015261335681612c8f565b9050919050565b6000602082019050818103600083015261337681612cf5565b9050919050565b6000602082019050818103600083015261339681612d5b565b9050919050565b600060208201905081810360008301526133b681612e01565b9050919050565b600060208201905081810360008301526133d681612ea7565b9050919050565b60006020820190506133f26000830184612f99565b92915050565b6000604051905081810181811067ffffffffffffffff8211171561341f5761341e613811565b5b8060405250919050565b600067ffffffffffffffff82111561344457613443613811565b5b602082029050602081019050919050565b600067ffffffffffffffff8211156134705761346f613811565b5b601f19601f8301169050602081019050919050565b600067ffffffffffffffff8211156134a05761349f613811565b5b601f19601f8301169050602081019050919050565b60008190508160005260206000209050919050565b600081519050919050565b600081519050919050565b600082825260208201905092915050565b600082825260208201905092915050565b600081905092915050565b60006135188261368c565b91506135238361368c565b9250827fffffffffffffffffffffffffffffffffffffffffffffffffffffffffffffffff0382111561355857613557613784565b5b828201905092915050565b600061356e8261368c565b91506135798361368c565b925082613589576135886137b3565b5b828204905092915050565b600061359f8261368c565b91506135aa8361368c565b9250817fffffffffffffffffffffffffffffffffffffffffffffffffffffffffffffffff04831182151516156135e3576135e2613784565b5b828202905092915050565b60006135f98261368c565b91506136048361368c565b92508282101561361757613616613784565b5b828203905092915050565b600061362d8261366c565b9050919050565b60008115159050919050565b60007fffffffff0000000000000000000000000000000000000000000000000000000082169050919050565b600073ffffffffffffffffffffffffffffffffffffffff82169050919050565b6000819050919050565b82818337600083830152505050565b60005b838110156136c35780820151818401526020810190506136a8565b838111156136d2576000848401525b50505050565b600060028204905060018216806136f057607f821691505b60208210811415613704576137036137e2565b5b50919050565b60006137158261368c565b91507fffffffffffffffffffffffffffffffffffffffffffffffffffffffffffffffff82141561374857613747613784565b5b600182019050919050565b600061375e8261368c565b91506137698361368c565b925082613779576137786137b3565b5b828206905092915050565b7f4e487b7100000000000000000000000000000000000000000000000000000000600052601160045260246000fd5b7f4e487b7100000000000000000000000000000000000000000000000000000000600052601260045260246000fd5b7f4e487b7100000000000000000000000000000000000000000000000000000000600052602260045260246000fd5b7f4e487b7100000000000000000000000000000000000000000000000000000000600052604160045260246000fd5b6000601f19601f8301169050919050565b61385a81613622565b811461386557600080fd5b50565b61387181613634565b811461387c57600080fd5b50565b61388881613640565b811461389357600080fd5b50565b61389f8161368c565b81146138aa57600080fd5b5056fe4142434445464748494a4b4c4d4e4f505152535455565758595a6162636465666768696a6b6c6d6e6f707172737475767778797a303132333435363738392b2f416e204e4654202f7720494420257320686173206265656e206d696e74656420746f202573a2646970667358221220261e9262c2230ea6ae7bb8c08ec859b888fa7fa4ae2eb3ae823b90f739b5522b64736f6c634300080000333c73766720786d6c6e733d27687474703a2f2f7777772e77332e6f72672f323030302f73766727207072657365727665417370656374526174696f3d27784d696e594d696e206d656574272076696577426f783d273020302033353020333530273e3c7374796c653e2e62617365207b2066696c6c3a2077686974653b20666f6e742d66616d696c793a2073657269663b20666f6e742d73697a653a20323470783b207d3c2f7374796c653e3c726563742077696474683d273130302527206865696768743d2731303025272066696c6c3d27626c61636b27202f3e3c7465787420783d273530252720793d273530252720636c6173733d27626173652720646f6d696e616e742d626173656c696e653d276d6964646c652720746578742d616e63686f723d276d6964646c65273e",
  "linkReferences": {},
  "deployedLinkReferences": {}
}